:0420000004EF10F0E9
:062008000001ADEF3EF007
:107B5A00030E826E000E026E080E016E8CEC3EF071
:107B6A00000E826E000E026E0A0E016E8CEC3EF062
:107B7A001200030E826E000E026E080E016E8CEC6D
:107B8A003EF0000E826E000E026E0A0E016E8CEC42
:107B9A003EF01200020E826E000E026E010E016E9F
:107BAA008CEC3EF0000E826E000E026E010E016E2B
:107BBA008CEC3EF0000E096E010E086E1200020EE9
:107BCA00826E000E026E0E0E016E8CEC3EF0000EFE
:107BDA00826E000E026E0E0E016E8CEC3EF0000EEE
:107BEA00096E030E086E1200010E826E000E026EFE
:107BFA00010E016E8CEC3EF0000E826E000E026EDB
:107C0A00010E016E8CEC3EF0000E096E020E086E3B
:107C1A001200010E826E000E026E0E0E016E8CECC8
:107C2A003EF0000E826E000E026E0E0E016E8CEC9D
:107C3A003EF0000E096E040E086E1200030E826EEC
:107C4A00000E026E080E016E8CEC3EF0000E826E83
:107C5A00000E026E0A0E016E8CEC3EF0000E096EEA
:107C6A00000E086E120081A002D0808001D08090A0
:107C7A0081A202D0808201D0809281A402D0808425
:107C8A0001D0809481A602D0808601D0809681A8F6
:107C9A0002D0808801D080981200030E826E000EF6
:107CAA00026E010E016E8CEC3EF0020E826E000E28
:107CBA00026E030E016E8CEC3EF0000E826E000E18
:107CCA00026E080E016E8CEC3EF0000E096E050E77
:107CDA00086E1200030E826E000E026E010E016E15
:107CEA008CEC3EF0010E826E000E026E030E016EE7
:107CFA008CEC3EF0000E826E000E026E080E016ED3
:107D0A008CEC3EF0000E096E060E086E1200000E94
:107D1A00056E000E046E11D0000E076E000E066E80
:107D2A0007BE06D0B80E065C0B0E0758D8B003D0B3
:107D3A00064A072AF5D7044A052A0150045C055069
:107D4A00800A036E0250800A0358D8B01200E4D7A2
:107D5A000F0EC16E200E926E9368000E946E000E86
:107D6A00806E000E816E000E826E02D038EC3EF0FC
:107D7A0080BAFCD738EC3EF081A081A208D081B449
:107D8A0081A605D081A803D0E4EC3DF041D081A0C2
:107D9A0081B208D081B481A605D081A803D0CFECE6
:107DAA003DF045D081B081B208D081B481A605D01A
:107DBA0081A803D052EC3EF049D081B081A208D00C
:107DCA0081B481A605D081B803D00EEC3EF04DD027
:107DDA0081B081A208D081B481B605D081B803D020
:107DEA00F9EC3DF051D081B081A208D081B481B6BE
:107DFA0005D081A803D06FEC3EF055D081B081B296
:107E0A000CD081A481B609D081B807D0E4EC3DF04A
:107E1A0008C00AF009C00BF0ADD781B081A20CD01E
:107E2A0081A481B609D081B807D0CFEC3DF008C053
:107E3A000AF009C00BF09ED781A081A20CD081A4C0
:107E4A0081B609D081B807D052EC3EF008C00AF0DA
:107E5A0009C00BF08FD781A081B20CD081A481B662
:107E6A0009D081A807D00EEC3EF008C00AF009C07C
:107E7A000BF080D781A081B20CD081A481A609D051
:107E8A0081A807D0F9EC3DF008C00AF009C00BF050
:107E9A0071D781A081B20CD081A481A609D081B802
:107EAA0007D06FEC3EF008C00AF009C00BF062D7A9
:107EBA0081A081B208D081B481B605D081B803D03F
:107ECA00ADEC3DF057D781A081A208D081B481B62C
:107EDA0005D081B803D0BEEC3DF04CD781A081B269
:107EEA0008D081B481A605D081B803D0BEEC3DF09C
:107EFA0041D781B081A208D081A481A605D081A8EA
:107F0A0003D0ADEC3DF036D781B081B208D081A460
:107F1A0081A605D081A803D0BEEC3DF02BD781B055
:107F2A0081A208D081A481B605D081A803D0BEEC75
:107F3A003DF020D781A081B22AD081A481B627D072
:107F4A0081B825D00A040B10D8B4CFEC3DF0030E4B
:107F5A000A180B10D8B4E4EC3DF0050E0A180B1001
:107F6A00D8B452EC3EF0020E0A180B10D8B4F9EC51
:107F7A003DF0040E0A180B10D8B40EEC3EF0060EB3
:107F8A000A180B10D8A4F6D66FEC3EF0F3D681B0DF
:107F9A0081A22AD081B481A627D081A825D00A043B
:107FAA000B10D8B4CFEC3DF0030E0A180B10D8B45E
:107FBA00E4EC3DF0050E0A180B10D8B452EC3EF072
:107FCA00020E0A180B10D8B4F9EC3DF0040E0A1888
:107FDA000B10D8B40EEC3EF0060E0A180B10D8A4FB
:107FEA00C9D66FEC3EF0C6D623EC3EF008C00AF0C4
:067FFA0009C00BF0BFD628
:020000040020DA
:08000000FFFFFFFFFFFFFFFF00
:020000040030CA
:0E00000000051F1FFF8385FF0FC00FE00F409C
:00000001FF
